:020000040800F2
:10000000F83F002005010008BB2D0008AF280008BC
:10001000B92D000829090008B534000800000000C7
:10002000000000000000000000000000DF2E0008BB
:10003000A709000800000000DD2E0008892F000835
:100040001F0100081F0100081F0100081F01000810
:100050001F0100081F0100081F0100081F01000800
:100060001F0100081F0100081F0100087109000896
:100070001F0100081F0100081F0100081F010008E0
:100080001F0100081F0100081F0100081F010008D0
:100090001F0100081F0100081F0100081F010008C0
:1000A0001F0100081F0100081F0100081F010008B0
:1000B00005300008B13000081F0100081F010008CA
:1000C0001F0100081F0100081F0100081F01000890
:1000D0001F0100081F0100081F0100081F01000880
:1000E0001F0100081F0100081F010008DFF810D0E1
:1000F00000F0F6FA0048004709380008AFF3008026
:10010000F83F00200648804706480047FEE7FEE724
:10011000FEE7FEE7FEE7FEE7FEE7FEE7FEE7FEE7B7
:1001200003300008ED000008202A04DB203A21FA01
:1001300002F00021704721FA02F3D040C2F1200200
:100140009140084319467047D2B201E000F8012BF4
:10015000491EFBD270470022F6E710B513460A4647
:1001600004461946FFF7F0FF204610BD80EA010261
:1001700010B502F00043400022D04A001FD0010E0B
:1001800001EB1261C0F35600C2F3560240F40000C6
:1001900042F40002A0FB022000047F39140400D0C6
:1001A000401C50EA124001D44000491EC2B20C0665
:1001B00004EBD010401C4008802A02D003E000204D
:1001C00010BD20F00100002900DA0020184310BD06
:1001D000420005D0C0F3C7525242914201DC0020D8
:1001E000704700EBC15070472DE9FE4F804681EA11
:1001F0000300C00F0C46009021F0004123F00045A1
:10020000B8EB0200A94105D24046214690461C4663
:100210000B46024623F00040104347D0270DC7F39A
:100220000A00C3F30A510290401A019040286BDA89
:10023000C3F3130040F4801B0098924620B10023C2
:10024000D2EB030A63EB0B0B01985946C0F1400255
:10025000504600F08FF906460D4650465946019A21
:1002600000F097F910EB08006141002487EA115271
:1002700084EAE7731A4340D0009A62B3019A012AD4
:100280004FEA075215DC001B61EB02014FF0004200
:1002900002EA0752CDE90042001C41F580113246C6
:1002A0002B4600F0CEF903B0BDE8F08F4046214662
:1002B000F9E7001B61EB0201001C41F580130018F7
:1002C0005B412018A2F5001747EB030140EAD57007
:1002D000B6196D4111E06D084FEA360645EAC07562
:1002E0004FEA0752001B61EB0201001C41F580112F
:1002F00049084FEA30000019514132462B4603B0FD
:10030000BDE8F04F00F08EB90098012240000023B4
:10031000D0EB020263EBE073009821464FEAE074F1
:10032000B8EB000061EB0401E9E783F000435BE711
:1003300081F0004158E72DE9F04D81EA030404F013
:10034000004B21F0004514464FF0000A23F0004115
:1003500050EA050220D054EA01021DD0C5F30A5725
:100360000246C5F31303C1F31300C1F30A5640F468
:10037000801543F48013A7EB0608101BD64608F23D
:10038000FD3873EB050002D308F1010801E0921873
:100390005B41B8F1000F03DA00200146BDE8F08DA3
:1003A00000204FF48011064684460EE0171B73EBC5
:1003B000050705D3121B63EB050306434CEA010C4A
:1003C00049084FEA300092185B4150EA0107EDD12D
:1003D00052EA030012D082EA040083EA05010843CE
:1003E00005D0101BAB4106D20122002306E00022FB
:1003F0004FF0004302E06FF0010253101AEB0600C9
:100400004CEB085110EB0A0041EB0B01BDE8F04D3D
:1004100000F008B970B521F0004303430CD0C1F3DC
:100420000A550024D5EB040564EB0403D617AD1A76
:10043000B34102DB0020014670BD201841EB0251A0
:1004400070BDC10F80EAE0700844CA0796230021FE
:1004500000F0BAB896230022114600F0B5B800F0BB
:10046000004220F00040C10DC0F3160040F400002F
:100470007F2901DA00207047962903DCC1F196013B
:10048000C84001E096398840002AF4D040427047C5
:1004900020F00040C10DC0F3160040F400007F2999
:1004A00001DA00207047962903DCC1F19601C840AB
:1004B0007047963988407047C1F30A5210B5C1F3AE
:1004C000130140F2FF3341F480119A4201DA002017
:1004D00010BD40F233439A42A2F2334203DC52424F
:1004E000FFF722FE10BD904010BD00F0004230F03A
:1004F00000400AD0C10D01F56071C0F3160042EA58
:100500000151C2084007114370470020014670475F
:1005100001F0004330B421F0004150EA010206D05E
:100520000A0DA2F56072C1F31301002A02DC30BC8F
:1005300000207047440F44EAC104C100E01830BCF9
:1005400000EBC25000F037B830B50B460146002032
:100550002022012409E021FA02F59D4205D303FA85
:1005600002F5491B04FA02F52844151EA2F1010206
:10057000F1DC30BD202A04DB203A00FA02F1002031
:1005800070479140C2F1200320FA03F319439040D1
:100590007047202A06DBCB17203A41FA02F043EAE3
:1005A000E07306E041FA02F3D040C2F1200291402C
:1005B0000843194670470029A8BF7047401C4900EE
:1005C00008BF20F00100704710B4B0FA80FC00FAB8
:1005D0000CF050EA010404BF10BC704749B1CCF1E3
:1005E000200421FA04F411FA0CF118BF012121436F
:1005F0000843A3EB0C01CB1D4FEA00614FEA10202A
:1006000042BF002010BC704700EBC35010440029CB
:10061000A4BF10BC7047401C490008BF20F0010077
:1006200010BC704710B5141E73F1000408DA401CAA
:1006300041F1000192185B411A4301D120F0010001
:1006400010BD2DE9F04D92469B4611B1B1FA81F2F1
:1006500002E0B0FA80F220329046FFF78BFF0446AA
:100660000F4640EA0A0041EA0B0153465A46084346
:1006700013D0114653EA010019D0C8F14002504688
:10068000FFF752FD05460E46504659464246FFF7D3
:1006900071FF084305D0012004E020463946BDE83B
:1006A000F08D0020054346EAE0762C4337430A9854
:1006B0006305E40AA0EB08000022FD0A44EA47545F
:1006C0000A3002D500200146E9E701051019694109
:1006D000DDE9084500196941BDE8F04DA2E70000D9
:1006E000064C074D06E0E06840F0010394E807007F
:1006F00098471034AC42F6D3FFF7FCFC683F000883
:10070000883F000870B58D1810F8014B14F00302F3
:1007100001D110F8012B231106D110F8013B03E0A1
:1007200010F8016B01F8016B521EF9D1ABB110F852
:10073000012B04F00C048A1A0C2C03D0A2EB8412B7
:100740009B1C08E010F8014BA2EB0422F8E712F81A
:10075000014B01F8014B5B1EF9D5A942D4D300200F
:1007600070BD000070B5044600688168C943C907C0
:1007700017D1816821F00101816000F0E5FE054696
:100780000AE000BF00F0E0FE401B022804D9206808
:100790008068C043C00706D020688068C043C00797
:1007A000F0D0002070BDA06A40F01000A062E06AA6
:1007B00040F00100E062012070BD10B50146406AC2
:1007C000826A12F0500F05D0006A026BBDE810403B
:1007D00008461047816A41F40071816201688968A6
:1007E000C1F3424107290CD1017B51B9816A21F43F
:1007F00080718162816AC90403D4816A41F0010178
:10080000816200F0E1FA10BD10B5406A816A41F0E2
:1008100040018162C16A41F00401C16200F0DFFA67
:1008200010BD10B5406A00F0D9FA10BDF8B5002629
:100830000446009600688168C943C9072DD08168C5
:1008400041F001018160164816490068B0FBF1F0E3
:1008500000E0401E00900028FBD100F075FE054628
:1008600016E000BF00F070FE401B022810D920687F
:100870008068C043C0070BD0A06A40F01000A0629F
:10088000E06A40F00100E06284F824600120F8BDD5
:1008900020688068C043C007E4D10020F8BD000094
:1008A0002808002040420F0010B54FF48072044920
:1008B000044800F06BFBBDE81040034801F07EBA2D
:1008C00038080020603600202837002010B5044882
:1008D00000F0E2FBBDE81040024801F0C3BA00009E
:1008E00060360020283700202DE9F04715460E46D7
:1008F00007460024DFF82C806FF00B090DE000BFE5
:1009000036F81400FFF7A6FD4146FFF72FFC4946D5
:10091000FFF75EFC47F82400641CAC42F0DBBDE846
:10092000F087000033335340FEE70000F0B51AE0D3
:100930000C460E4F4FF0010C12E0E51704EB557614
:10094000F51007EBC515054426F00706A61B95F81C
:1009500000E00CFA06F62EEA060E85F800E0641CAC
:100960009C42EADD401C9042E2DDF0BDF8370020F9
:10097000014800F0DFBB00009036002030B590F851
:1009800040500124AC40C56B6C60046863604368F0
:10099000102B036803D099600068C26030BD9A6074
:1009A0000068C16030BD70472DE9F04F8FB016462A
:1009B0008B46824600F04EF9044600F045F90A9055
:1009C00000F07EF90A98D0B1002004900990C4B1DB
:1009D000BAF1800F39DABBF1400F36DA04EB84014B
:1009E00001EB0A00012830D40BEBC40001282CD401
:1009F000344906EB86000844002503902BE00120D3
:100A0000E3E7BBF1060F20DCBAF1780F1DDC203ED6
:100A10002D4DF6B2002400BF04EB06100AEB0401D2
:100A20002A5C584602F04EFD641C082CF4DB0024BE
:100A300004EB061028440AEB0401027A0BF10100D2
:100A400002F040FD641C082CF2DB0FB0BDE8F08F13
:100A5000052D0AD00398284402F0F6FF80460027AF
:100A60005FEAC87003D00A9802E00020F6E7049815
:100A70000999089088421BD0002016E00AEB090073
:100A800005FB040000260D900AE000BF0BEB0600FA
:100A900007FB0401089A0D9802F054FA761CF6B28E
:100AA000A642F3D309F10100C0B28146A042E5D3CA
:100AB0007F1C4FEA6808082FD2DB6D1C062DC7DBB0
:100AC000C3E70000643A0008643F00082DE9FE4FC8
:100AD000161A80B2019088B24FF000085D1A00909B
:100AE00047464FF0FF30002E02DD4FF0010102E0DB
:100AF00003D14FF000018A4602E08246C6F10006AB
:100B0000002D02DD4FF0010002E003D14FF00000A4
:100B1000834602E08346C5F10005AE4201DD34465E
:100B200000E02C46601C4FF0000902901CE000BF62
:100B300000F08AF80246DDE9001002F003FAB04442
:100B40002F44A04505DD0198A8EB0408504480B26D
:100B50000190A74204DD00983F1B584480B20090EA
:100B600009F101001FFA80F902998945E0DDBDE82D
:100B7000FE8F2DE9F047174689460546002400F010
:100B8000FF0801F0FF0A00F065F806001DD006EB33
:100B900046093A5D002A1BD00A2A1BD0514640461E
:100BA000FFF702FF08EB4900C0B2641C8046E4B2C4
:100BB000EFE749462846FFF7F7FE0835782D02DDB6
:100BC000002509F10209641CE4B23A5D002AF0D163
:100BD000BDE8F0870AEBC60000F0FF0AE8B2E4E7E0
:100BE00070B50023802219461846FFF76FFF0022D8
:100BF0003F2311461046FFF769FF3F238022194625
:100C00000020FFF763FF80223F2300211046FFF7FB
:100C10005DFF5A223F2300211046FFF757FF0025B2
:100C2000002423462A1D19462846FFF74FFF0834A3
:100C30003F2CF6DB0835522DF2DBBDE8704002F0A8
:100C40002FBC72B6FEE70000014800787047000034
:100C50002D08002001484078704700002F08002030
:100C600070B5124D4FF48041284600F063FC01241A
:100C700008B90F4804704FF40041284600F05AFCB0
:100C800008B90C4804704FF48051284600F052FC1B
:100C900008B9094804704FF40051284600F04AFC96
:100CA000002801D10548047070BD0000000C01400F
:100CB000050000200600002007000020080000209A
:100CC00001480078704700002F080020F8B5002484
:100CD000009490F824202546012A12D0012280F8A1
:100CE00024204A681F23072A0DD20668776B521EFC
:100CF00002EB820293409F430B6893401F4377634C
:100D000019E00220F8BD06680D2A0AD2376BD21FFF
:100D100002EB820293409F430B6893401F4337636B
:100D200009E0F76A0D3A02EB820293409F430B6899
:100D300093401F43F7620A68072306680A2A0AD30A
:100D4000F7680A3A02EB420293409F438B68934054
:100D50001F43F76008E0376902EB420293409F436C
:100D60008B6893401F4337610A68102A01D0112A0B
:100D700020D1124B02689A4217D193681B0219D4F2
:100D8000936843F4000393600968102912D10C4959
:100D90000C4A0968B1FBF2F101EB8101490000E066
:100DA000491E00910029FBD104E0816A41F0200135
:100DB0008162012480F824502046F8BD00240140BF
:100DC0002808002040420F0010B5FFF77FFD0249C0
:100DD0000120087010BD000004000020704770471B
:100DE0002DE9F0414FF0000704003D467ED0A06A97
:100DF000002628B9E66284F82460204600F07EF8D8
:100E00002046FFF7AFFCA16AC90600D420B1A06A52
:100E100040F01000A06269E0A16A21F4885141F01D
:100E20000201A1626268E169237B0A4347EA430148
:100E30000A43A1684FF48077B94209D0012907D04D
:100E40005FF0000194F814C0BCF1010F02D00AE079
:100E50003946F7E7F3B1A36A43F02003A362E36ADC
:100E600043F00103E3622368D3F804C02CF4694C17
:100E70004CEA010CC3F804C021688B68DFF870C02D
:100E800003EA0C0313438B60A168B9420BD001291C
:100E900009D00CE0DFF85CC0A3690CEB43330B43D3
:100EA00043F40061DFE7218A0D05A5F5801521686F
:100EB000CB6A23F470032B43CB62216889680E4B05
:100EC0001940914208D1E662A16A21F0020141F085
:100ED0000101A162BDE8F081A06A20F0020040F0AB
:100EE0001000A062E06A40F00100E0620120F1E73A
:100EF000FDF7E1FF00E0FFFFFE0E1FFF70B586B0BB
:100F000000250646009501950295039500681A494B
:100F100088422ED11949886940F400708861886937
:100F200000F400700490886940F0040088618869CA
:100F3000694600F004000490022000900320019014
:100F40000F4800F007FA104C0E48C4E90005802055
:100F5000C4E9025040002061800060612020C4E9A3
:100F60000605204600F090F908B1FFF76AFE3462EA
:100F7000666206B070BD000000240140001002400F
:100F80000008014008000240903600202DE9F0479B
:100F9000894604463B4900683B4F0E1D90468842F7
:100FA00001D0B84207D1306810F4702F03D001256A
:100FB0002846BDE8F08794F8240001280CD00120D1
:100FC00084F824002046FFF731FC05004FF00000B4
:100FD00004D084F82400EBE70220EAE7A16A40F697
:100FE0000162914341F48071A1622168B94218D134
:100FF000326812F4702F14D0A16A41F48011A162FA
:101000003168490505D5A16A21F4005141F48051A8
:10101000A162A16AC9040AD5E16A21F00601E16270
:1010200006E0A26A22F48012A2624968E9E7E0625F
:1010300084F82400216A15488862216A1448C8622D
:10104000216A1448086321686FF002000860206874
:10105000816841F480718160216843464A464C3181
:10106000206A00F03FF920688168C1F342410729F6
:10107000816803D041F48011816099E741F4A001B7
:10108000FAE700000024014000280140BB070008E7
:10109000230800080908000810B5044690F8240049
:1010A000012807D0012084F824002046FFF75AFBCE
:1010B00010B113E0022010BD21688A6822F480720A
:1010C0008A60216A91F82120022A07D1084600F09F
:1010D0000EF8A16A30B141F04001A162002184F80C
:1010E000241010BD21F4885141F00101F5E710B53D
:1010F00090F821100022022905D00421816380F894
:101100002020012010BD01680B6823F00E030B6046
:1011100001680B6823F001030B6090F84030C46B4A
:10112000012101FA03F3636080F8211080F8202088
:10113000104610BD2DE9F05FC16B0C6801680B68AB
:10114000D0F840C0042202FA0CF2494DDFF824A185
:10115000494E4A4FDFF828B1DFF828E122422CD06F
:101160005A072AD50A68920603D40A6822F00402B4
:101170000A600168A94201D1042219E0514501D158
:10118000402215E0B14202D14FF4806210E0B94232
:1011900002D14FF480420BE0594502D14FF4802236
:1011A00006E0714502D14FF4800201E04FF0806209
:1011B0002F4908394A60C16A3BE04FF0020808FA3B
:1011C0000CF818EA040F4FF000094FF0010235D077
:1011D0005FEA837832D50B689B0605D40B6823F051
:1011E0000A030B6080F821200168A94201D1022284
:1011F00019E0514501D1202215E0B14202D14FF44E
:10120000007210E0B94202D14FF400520BE0594590
:1012100002D14FF4003206E0714502D14FF40012C2
:1012200001E04FF00072124908394A6080F82090BE
:10123000816A00291AD0BDE8F05F0847082505FA41
:101240000CF5254212D01B0710D50B6823F00E03B6
:101250000B6090F84010C36B02FA01F15960826391
:1012600080F8212080F82090016BE2E7BDE8F09F34
:10127000080002401C0002403000024044000240CE
:10128000580002406C00024030B528B308C813492A
:1012900014221944B1FBF2F18900C1631049816342
:1012A000022141771A6843F6F0718A43D0E90014AD
:1012B0002143D0E902452C43214304692143446979
:1012C00021438469214311431960002141630122B4
:1012D00042770177084630BD012030BDF8FFFDBFE1
:1012E0000000024070B5044690F820000025012857
:1012F0000CD0012084F8200094F821600020012EF9
:1013000006D084F820000225284670BD022070BD5A
:10131000022684F82160A0632068066826F0010692
:1013200006602046FFF72AFBE06A00282068016873
:1013300002D041F00E0106E021F0040101602068B6
:10134000016841F00A0101602068016841F0010173
:101350000160D9E72DE9F84FDFF8B891002409F1D1
:10136000040A0AF1040B23460F270BF1040EC9E00F
:101370000125A5402A40AA427DD1674ED1F804C07C
:10138000ACEB0608B44532D014DCBCF1030F3AD004
:1013900009DCBCF1000F2AD0BCF1010F1CD0BCF15C
:1013A000020F31D11DE0BCF1110F17D0BCF1120FAB
:1013B0002AD119E0B8F5881F19D006DCB8F5803FAE
:1013C00015D0B8F5801F1FD111E0B8F5001F0ED061
:1013D000B8F5041F18D10AE0CB6815E0CB681B1DD7
:1013E00012E0CB6808330FE0CB680C330CE08B685D
:1013F0002BB1012B4FF0080303D0456104E0042317
:1014000002E0056100E00023FF2A01D8064601E062
:1014100000F104064FEA840501D9A5F12005D6F8AC
:10142000008007FA05FC28EA0C0803FA05F548EAEB
:101430000508C6F800804D68ED0062D5374DAE69ED
:1014400046F00106AE61AD6924F0030605F0010522
:101450000095334D06EB050CDCF80850A607360F57
:1014600007FA06F825EA0805DFF8B880404503D1F9
:101470004FF0000817E044E0DFF8AC80404502D1AF
:101480004FF001080FE0DFF8A480404502D14FF093
:10149000020808E0DFF89880404502D14FF00308C9
:1014A00001E04FF0040808FA06F848EA0508CCF80D
:1014B00008804D68D9F80060ED034D4601D516430C
:1014C00000E096432E604D68DAF80060AD035546A3
:1014D00001D5164300E096432E604D68DBF80060AE
:1014E000ED025D4601D5164300E096432E604D683F
:1014F000DEF80060AD02754601D5164300E0964364
:101500002E60641C0D682A46E5407FF431AFBDE8CB
:10151000F88F00000004014000001110001002408C
:101520000000014000080140000C01400010014093
:10153000001401408068084000D0012070470AB1C3
:10154000016170470904FBE70148806870470000AB
:101550001C080020024881680278114481607047AD
:101560001C080020074810B5016841F01001016017
:10157000032000F075F80F2000F006F800F024F8C2
:10158000002010BD0020024070B50D4D04464FF400
:101590007A712878B1FBF0F00A490968B1FBF0F0E4
:1015A00000F062FB48B9102C07D200222146501EE1
:1015B00000F036F800206C6070BD012070BD0000A6
:1015C0001C080020280800200C4808B5816941F05B
:1015D00001018161816901F001010091C16941F05E
:1015E0008051C161C06900F080500090044841689A
:1015F00021F0E06141F00071416008BD001002403F
:1016000000000140002809DB00F01F020121914089
:101610004009800000F1E020C0F800117047000090
:10162000F0B40E4B1B680C46C3F30223C3F107054D
:10163000042D00D90425191D072901D2002300E03B
:10164000DB1E012606FA05F1491E214099409E4005
:10165000761E16403143F0BC01F0C2BF0CED00E035
:10166000064900F0070208684FF6FF03184040EAF9
:101670000220034A10430860704700000CED00E0B0
:101680000000FA052DE9F84305460078354CC007FF
:1016900054D0E0690026C00008D4E06940F08050D2
:1016A000E061E069012600F0805000902E4801685A
:1016B000C90512D40168804641F480710160FFF7CA
:1016C00043FF074605E000BFFFF73EFFC01B64284D
:1016D00023D8D8F80000C005F6D5206A10F4407071
:1016E00021D0A98801F4407181421CD0206A1F4991
:1016F000012220F440700A6000220A602062C007C4
:1017000011D0FFF721FF074641F2883808E000BFFB
:10171000FFF71AFFC11B414502D90320BDE8F8833A
:10172000206A8007F4D5206A696820F44070084375
:1017300020621EB1E06920F08050E06128788007C7
:1017400005D56068A96820F44040084360602878A7
:10175000C00605D56068E96820F480000843606031
:101760000020DBE7001002400070004040044242CD
:101770002DE9F0470F46050061D0434E306800F078
:101780000700B84209D2306820F0070038433060C3
:10179000306800F00700B84251D128683B4C8107FF
:1017A00012D5400703D5606840F4E0606060287897
:1017B000000703D5606840F4605060606068A96805
:1017C00020F0F000084360602878C00728D06868DF
:1017D000012810D02168022810D0890700292EDAAC
:1017E000616821F0030101436160FFF7ADFE8046AF
:1017F00041F288390DE021688903EFE78901EDE7BF
:10180000FFF7A2FEA0EB0801494502D90320BDE87D
:10181000F0876068696800F00C00B0EB810FEFD1D1
:10182000306800F00700B8420BD9306820F007009C
:1018300038433060306800F00700B84201D0012022
:10184000E5E72878400705D56068E96820F4E0609E
:10185000084360602878000706D56068296920F48D
:10186000605040EAC100606000F038F86168084AE2
:10187000C1F30311515CC84006490860064800687E
:10188000FFF782FE0020C2E7002002400010024065
:101890004C3A000828080020200800200448054988
:1018A00000684968044AC1F30221515CC84070478E
:1018B00028080020001002405C3A0008044805494E
:1018C00000684968044AC1F3C221515CC8407047AE
:1018D00028080020001002405C3A000812A185B0E0
:1018E0000FC98DE80F0014A0144A006804905168D5
:1018F000134801F00C03042B10D0082B0ED1C1F3B8
:101900008343C9031DF803000AD5516804AAC1F333
:101910004041515C0A4A5043B0FBF1F005B07047BA
:1019200008494843FAE700000203040506070809CE
:101930000A0B0C0D0E0F10100102000000100240E7
:1019400000127A0000093D002DE9F84F040070D024
:101950002078C04DC00749D06868C0F381000128D5
:1019600007D06868C0F38100022809D16868C00305
:1019700006D52868800339D560680028E7D035E0AF
:101980006068B0F5803F0BD010B1B0F5A02F11D03A
:10199000286820F480302860286820F4802002E045
:1019A000286840F480302860606890B1FFF7CCFD73
:1019B00006460AE0286840F480202860F0E700BF6F
:1019C000FFF7C2FD801B642873D828688003F7D511
:1019D0000CE0FFF7B9FD064605E000BFFFF7B4FDD8
:1019E000801B6428F0D828688003F7D420789A4EAA
:1019F00080074FF001094FF0000839D5686810F0F2
:101A00000C0F07D06868C0F38100022809D168680C
:101A1000C00306D42868800714D52069012808D19E
:101A200010E02069B0B1C6F80090FFF78DFD0746C1
:101A300005E00AE1FFF788FDC01B0228C4D828682A
:101A40008007F7D52868616920F0F80040EAC100F6
:101A500028600DE0C6F80080FFF776FD074604E039
:101A6000FFF772FDC01B022823D828688007F7D42F
:101A7000207800072CD57948A169D9B1C0F8009029
:101A8000FFF762FD074604E0FFF75EFDC01B02287A
:101A90000FD8686A8007F7D571484FF4FA5100688B
:101AA000B0FBF1F0009000BF0098411E0091FAD207
:101AB0000EE080E0C0F80080FFF746FD074604E036
:101AC000FFF742FDC01B022875D8686A8007F7D46B
:101AD0002078400760D5E8690027C00008D4E8698D
:101AE00040F08050E861E869012700F080500090E4
:101AF0005C480168C90513D40168834641F48071CC
:101B00000160FFF721FD824606E000BFFFF71CFDE4
:101B1000A0EB0A0064284ED8DBF80000C005F5D51C
:101B2000E06801280AD008B1052813D0286A20F0FF
:101B300001002862286A20F0040002E0286A40F0D0
:101B400001002862E06841F2883B98B1FFF7FCFC95
:101B500082460BE0286A40F004002862EEE700BFEE
:101B6000FFF7F2FCA0EB0A0159455AD8286A800712
:101B7000F6D50CE0FFF7E8FC824605E0FFF7E4FC51
:101B8000A0EB0A0159454CD8286A8007F6D41FB14A
:101B9000E86920F08050E861E06988B36968C1F3C2
:101BA0008101022944D00228C6F8608004D0FFF7E2
:101BB000CBFC044638E034E0FFF7C6FC074604E0FF
:101BC000FFF7C2FCC01B02282BD828688001F7D47D
:101BD000206AB0F5803F05D16868A16820F4003024
:101BE00008436860D4E908010843696821F4741166
:101BF00008436860C6F86090FFF7A6FC044606E05C
:101C000025E000BFFFF7A0FC001B022809D82868C8
:101C10008001F7D51BE000BFFFF796FC001B0228F0
:101C200002D90320BDE8F88F28688001F4D40EE0C3
:101C30000128F7D06868226A00F48031914204D10B
:101C4000616A00F47010884201D00120EAE70020A8
:101C5000E8E70000001002400000424280044242D7
:101C6000280800200070004010B5401EB0F1807FB1
:101C700001D3012010BD4FF0E02460610F216017F7
:101C800001F0AEFC0020A06107202061002010BD03
:101C90007047704770B590F83C20012A26D0012487
:101CA00080F83C40022280F83D2003685A689D6815
:101CB00022F070060A6832435A600D4B02689A425D
:101CC00008D0B2F1804F05D00A4B9A4202D00A4B9D
:101CD0009A4204D1496825F080031943916080F845
:101CE0003D40002180F83C10084670BD022070BDC8
:101CF000002C0140000400400008004010B5040022
:101D000003D094F83D0010B107E0012010BD002081
:101D100084F83C00204600F01FF8022084F83D00C3
:101D2000211D206801F0CAF9012084F8460084F8DA
:101D30003E0084F83F0084F8400084F8410084F8B5
:101D4000420084F8430084F8440084F8450084F895
:101D50003D00002010BD000000B585B000210091BD
:101D60000191029103910068B0F1804F20D1114898
:101D7000C16941F00101C161C16901F00101049132
:101D8000816941F0040181618069694600F00400C5
:101D9000049004200090022002900748FFF7DAFA2E
:101DA000002211461C20FFF73BFC1C20FFF72AFCF9
:101DB00005B000BD001002400008014090F83D1041
:101DC000012901D001207047022180F83D100068F0
:101DD0000B49884208D0B0F1804F05D009498842AC
:101DE00002D00949884204D1816801F0070106291F
:101DF00003D0016841F0010101600020704700003C
:101E0000002C0140000400400008004090F83D1004
:101E1000012901D001207047022180F83D1001689E
:101E2000CA6842F00102CA6000680B49884208D0C3
:101E3000B0F1804F05D00949884202D00849884254
:101E400004D1816801F00701062903D0016841F03F
:101E50000101016000207047002C01400004004097
:101E60000008004001680A6A41F211131A4207D1C2
:101E70000A6A9B101A4203D10A6822F001020A6022
:101E8000012180F83D10002070470168CA6822F0E7
:101E90000102CA6001680A6A41F211131A4207D1AD
:101EA0000A6A9B101A4203D10A6822F001020A60F2
:101EB000012180F83D100020704770B5044690F86D
:101EC0003C00012817D0012584F83C50022084F8FA
:101ED0003D002068826822F0770222F47F4282600F
:101EE0000868502830D00DDC20284DD005DC98B390
:101EF00010283BD148E0022070BD302844D0402853
:101F000034D139E0602828D0702806D0B0F5805F41
:101F10002CD0B0F5005F29D10AE0CB68D1E90121CE
:101F2000206801F00EF92068816841F0770109E02E
:101F3000CB68D1E90121206801F003F920688168AC
:101F400041F48041816011E0CA684968206801F06D
:101F5000ADF95021206807E016E0CA68496820689A
:101F600001F0E2F96021206801F0F5F884F83D50B5
:101F7000002084F83C0070BDCA684968206801F000
:101F800095F940212068EFE7226801461046EBE70B
:101F900070B51E49064600680968884234D11C4C59
:101FA00020781A4D0C3D012814D002281DD003289A
:101FB0002AD10821304600F07BFBA168C1EB01412A
:101FC0000844A8600821304600F04AF90F48FFF79E
:101FD0005CFF16E00821304600F06AFBA168C1EB07
:101FE000014108442860022009E00821304600F041
:101FF0005FFBA168C1EB014108446860002001F06B
:1020000047F82078401C207070BD0000E0360020AA
:10201000100800202DE9F041054690F83C000C46E0
:10202000012836D0012085F83C008AB3042A42D02A
:102030002868082A51D0D4E90023E168066A26F40A
:1020400080560662C669076A26F4407646EA03238C
:102050004FF6FF7606EA013123F4704319434FF43B
:10206000005627F4005306EA02321A43C1610262A5
:102070002868C16921F44061C1612868C169A2680A
:1020800041EA0221C161002085F83C00BDE8F081F1
:1020900001E00220FAE7D4E90012E368286801F0C1
:1020A00017F92868816921F00C018161286881692C
:1020B000A26811430FE0D4E90012E368286801F038
:1020C00045F92868816921F4406181612868816946
:1020D000A26841EA02218161D5E7D4E90027267B85
:1020E000016A21F480710162C169036A21F0030170
:1020F000394321F0F00731074FF4007647EA1161C8
:1021000023F4007306EA02221A43C16102622868BE
:10211000C16921F00C01C1612868C169A26811433D
:10212000B0E710B5040003D094F83D0010B107E00B
:10213000012010BD002084F83C00204600F01EF86D
:10214000022084F83D00211D206800F0B7FF012027
:1021500084F8460084F83E0084F83F0084F840008C
:1021600084F8410084F8420084F8430084F8440075
:1021700084F8450084F83D00002010BD7047000041
:1021800010B5044651B104290DD0082910D094F897
:10219000410094F84520012811D10EE094F83E004A
:1021A00094F84220F7E794F83F0094F84320F2E7D0
:1021B00094F8400094F84420EDE7012A01D0012072
:1021C00010BD022051B1042911D0082918D084F87B
:1021D000410084F845000C291BD136E084F83E000C
:1021E00084F842002068C26842F0020210E084F8DD
:1021F0003F0084F843002068C26842F0040207E010
:1022000084F8400084F844002068C26842F0080264
:10221000C2600122206800F087FF0E4920688842D2
:1022200008D0B0F1804F05D00B49884202D00B494D
:10223000884204D1816801F00701062903D00168B2
:1022400041F001010160002010BD2068C26842F029
:102250001002DDE7002C01400004004000080040AF
:1022600030B5044600680D0006D0042D08D0082DB6
:1022700028D00C2D08D129E0C16821F0020102E02C
:10228000C16821F00401C16000222946206800F0E5
:102290004BFF2068016A41F21112114207D1016A15
:1022A0009210114203D1016821F001010160012067
:1022B00085B1042D11D0082D12D004F8410F2071E2
:1022C000002030BDC16821F00801DCE7C16821F0C1
:1022D0001001D8E704F83E0FF1E704F83F0FEEE7EE
:1022E00004F8400FEBE770B50446006801694FF051
:1022F0000005C943890715D4C168C943890711D4AA
:10230000E91E01610120207720688069800720464E
:1023100002D0FFF73DFE04E000F0BCF8204600F0DC
:1023200069F9257720680169C943490717D4C1684D
:10233000C943490713D46FF00401016102202077DB
:102340002068806910F4407F204602D0FFF720FE0D
:1023500004E000F09FF8204600F04CF92577206853
:102360000169C943090716D4C168C943090712D4D2
:102370006FF008010161042020772068C0698007A0
:10238000204602D0FFF704FE04E000F083F8204668
:1023900000F030F9257720680169C943C90617D4D0
:1023A000C168C943C90613D46FF010010161082048
:1023B00020772068C06910F4407F204602D0FFF7E4
:1023C000E7FD04E000F066F8204600F013F92577F9
:1023D00020680169C943C90708D1C168C943C90751
:1023E00004D1891E0161204600F054F9206801697A
:1023F000C943090609D4C168C943090605D46FF069
:10240000800101612046FFF743FC20680169C94350
:10241000490609D4C168C943490605D46FF0400193
:102420000161204600F059F920680169C943890615
:102430000BD4C168C943890607D46FF0200101613C
:102440002046BDE87040FFF724BC70BD00B585B0E4
:102450000021009101910291039100680A4988428C
:1024600010D10A48816941F008018161806969469B
:1024700000F00800049002200090019003900448AE
:10248000FEF768FF05B000BD0004004000100240E8
:10249000000C0140704770B5044690F83C000D46B2
:1024A00001280AD0012084F83C0042B1042A18D047
:1024B000082A2AD00C2A4DD139E0022070BD2068AC
:1024C00000F052FE2068816941F0080181612068B6
:1024D000816921F004018161206881692A691143C1
:1024E00011E0206800F068FE2068816941F4006115
:1024F00081612068816921F480618161206881693E
:102500002A6941EA0221816124E0206800F080FE0E
:102510002068C16941F00801C1612068C16921F0EA
:102520000401C1612068C1692A69114311E0206872
:1025300000F09AFE2068C16941F40061C161206821
:10254000C16921F48061C1612068C1692A6941EAD9
:102550000221C161002084F83C0070BD10B5040068
:1025600003D094F83D0010B107E0012010BD002019
:1025700084F83C00204600F01FF8022084F83D005B
:10258000211D206800F09AFD012084F8460084F89F
:102590003E0084F83F0084F8400084F8410084F84D
:1025A000420084F8430084F8440084F8450084F82D
:1025B0003D00002010BD000008B500680B498842AE
:1025C00012D10B48C16941F00201C161C06900220A
:1025D00000F00200009011461D20FFF721F8BDE831
:1025E00008401D20FFF70EB808BD000000040040A1
:1025F000001002407047000010B50446022249B1A5
:1026000004290ED0082913D094F84100012816D0CF
:10261000012010BD94F83E000128F9D184F83E2035
:102620000FE094F83F000128F2D184F83F2008E041
:1026300094F840000128EBD184F8402001E084F8B0
:1026400041200122206800F06FFD0F492068884278
:1026500003D1426C42F4004242642068884208D0B0
:10266000B0F1804F05D00949884202D0084988421C
:1026700004D1816801F00701062903D0016841F007
:1026800001010160002010BD002C01400004004049
:1026900000080040044900680968884203D10348E3
:1026A0008168491C81607047E036002010080020D6
:1026B0000246002041B1042909D008290AD00C297A
:1026C00001D11068006C70471068406B704710684B
:1026D000806B70471068C06B7047704770B504001E
:1026E00004D094F83D00002510B106E0012070BD33
:1026F00084F83C50204600F023F8242084F83D0064
:102700002068C16821F40051C160204600F03AFE03
:102710002068016921F4904101612068416921F03C
:102720002A0141612068C16841F40051C1602564FB
:10273000202084F83D0084F83E00002070BD000099
:1027400070B586B000240094019402940394036849
:102750002648254E022103220515B3421ED1836966
:1027600043F480438361836903F480430493836962
:1027700043F00403836180691D4E00F0040004905F
:102780000802CDE90001039269463046FEF7E2FDFA
:10279000CDE9005469463046029420E0154EB3421C
:1027A0001FD1C36943F48023C361C36903F4802349
:1027B0000493836943F0080383618069CDE9005184
:1027C00000F00800CDE903200B4D69462846FEF7CE
:1027D000C1FDE814CDE90004694628460294FEF7DD
:1027E000B9FD06B070BD0000003801400010024085
:1027F0000008014000480040000C01402DE9F8436A
:10280000044690F83D001F4616460D4620284CD140
:10281000C5B1BEB194F83C00012846D0012084F82F
:102820003C004FF00008C4F84080212084F83D00AF
:10283000FEF78AFEA6848146E684A068B0F5805F34
:1028400003D004E00120BDE8F883206928B12E46BA
:102850005FF0000584F83C800EE00026FAE7802156
:10286000204600F0EBFDA0B9AEB116F8010B2168CF
:102870004860E08C401EE084E08C4B464FF0000244
:1028800000970028EBD14FF04001204600F0D6FD24
:1028900030B10320D7E735F8020BC0F30800E6E7B4
:1028A000202084F83D000020CDE70220CBE7FEE7A2
:1028B0001CB5044612A202215C20FEF75AF912A2AE
:1028C0000A215C20FEF755F92046FDF7C8FD0246B7
:1028D0000FA1684600F070FE1E23802214215C20A8
:1028E000FEF724F86A4614215C20FEF742F900F056
:1028F000D7FD1E23802214215C20FEF717F81CBD93
:102900004865617274000000526174653A0000000D
:102910002564626D7000000010B504461EA22021DF
:102920005C20FEF726F9372C07DC3A2380222A2187
:102930005C20FDF7FBFF1AA220E0A4F138000E286E
:1029400007D23A2380222A215C20FDF7EFFF16A24E
:1029500014E0A4F146005A2807D83A2380222A21FD
:102960005C20FDF7E3FF12A208E0A02C0CDD3A2367
:1029700080222A215C20FDF7D9FF0FA22A215C20AA
:10298000FEF7F7F800F08CFD3A2380222A21BDE8FB
:1029900010405C20FDF7CABF53746174653A0000B3
:1029A000536C6F77000000004865616C746800002C
:1029B00046617374000000004572726F720000007F
:1029C0002DE9F043DBB0224FDFF88880DFF88890F4
:1029D000064601244FEA0D0556F82400FDF785FD53
:1029E00000223B46FDF7A7FC0422FDF713FD002261
:1029F0004346FDF7F9FB00224B46FDF799FCFDF736
:102A000087FD45F82400641C5B2CE5DB3F235A223C
:102A100000210120FDF78AFFFEF7E2F85FF00104D4
:102A200005EB84004068FDF71AFD064655F82400C2
:102A3000FDF715FD01463346621C2046FEF746F8B9
:102A4000641C5B2CECDB00F02BFD5BB0BDE8F0837D
:102A50000000F83F0000E03F0080484070B50122D0
:102A60000B4D540221462846FEF769FD012216024D
:102A700031462846FEF763FD002231462846FEF720
:102A80005EFD21462846BDE870400022FEF757BD96
:102A9000000C014070B5094C012251022046FEF79E
:102AA0004EFDA515002229462046FEF748FD294681
:102AB0002046BDE870400122FEF741BD000C0140F8
:102AC00070B50122064D540221462846FEF737FD17
:102AD00021462846BDE870400022FEF730BD0000C8
:102AE000000C01403EB5002410480094019402946B
:102AF0000D498460016004730475012505614FF47C
:102B000000214460C161FEF76BF908B1FEF799F846
:102B10000095CDE9015469460448FEF7D7F800282E
:102B200001D0FEF78EF83EBD002401406036002043
:102B3000094808B5416941F001014161406900223D
:102B400000F00100009011460B20FEF769FDBDE882
:102B500008400B20FEF756BD001002402DE9F04161
:102B600086B000242948009401940294039481695A
:102B700041F010018161816901F0100104918169C6
:102B800041F020018161816901F020010491816996
:102B900041F004018161816901F0040104918169BE
:102BA00041F0080181618069012200F00800184F9E
:102BB0005503049029463846FEF7C1FCDFF85480DF
:102BC0004FF44076002231464046FEF7B8FC022022
:102BD000CDE9024000950125694601953846FEF78A
:102BE000B9FB4FF47040CDE90004694640460294B9
:102BF000FEF7B0FB0320CDE90240CDE90065694650
:102C00004046FEF7A7FB06B0BDE8F0810010024089
:102C100000100140000C014010B58AB00024234888
:102C200004940594069407940894099400940194DC
:102C300002944FF08041039401600721C0E9011420
:102C40004FF6FF71C0E9031480218161FFF756F848
:102C500008B1FDF7F6FF4FF48050049004A9134823
:102C6000FFF72BF908B1FDF7ECFF1048FFF759FA11
:102C700008B1FDF7E6FF089408A90C480994FFF78E
:102C800009F808B1FDF7DDFF0120CDE9004008207B
:102C9000CDE90240024669460448FFF7BBF9002827
:102CA00001D0FDF7CEFF0AB010BD0000E0360020D5
:102CB00030B589B0002507951C2168460895FDF7B9
:102CC0004AFA1E4C1C48C4E9000540F2F310C4E95E
:102CD000025080202561A0612046FFF73FFC08B12B
:102CE000FDF7AFFF2020CDE9070507A91348FEF740
:102CF000D1FF08B1FDF7A5FF6020CDE900050295E1
:102D00000C2269460D480495FFF7C5FB08B1FDF795
:102D100098FF0C210948FFF76FFC0A4808494068F2
:102D2000FDF724FAFDF7B4FB216808640348FFF7B8
:102D30008DFB09B030BD00000004004028370020A2
:102D40000000FA43100800200C4810B50A49016041
:102D50004FF4E1314160002181600C22C160C0E983
:102D600004128161C161FFF7B9FC002803D0BDE8FE
:102D70001040FDF766BF10BD0038014070370020DD
:102D80000C4810B50A4901604FF41651416000210A
:102D900081600C22C160C0E904128161C161FFF74A
:102DA0009DFC002803D0BDE81040FDF74ABF10BDD0
:102DB00000480040B4370020FEE7FEE770B500246D
:102DC00004F1B000C0B200F08BFB002000F088FBE3
:102DD000102000F085FB0025002000F098FB6D1C02
:102DE000EDB2802DF8D3641CE4B2082CE8D370BD9A
:102DF00070B505465FF0000404F1B000C0B200F009
:102E00006FFB002000F06CFB102000F069FB002637
:102E100015F8010B00F07BFB761CF6B2802EF7D381
:102E2000641CE4B2082CE7D370BD10B5AE2000F0EE
:102E300057FB202000F054FB102000F051FBB02085
:102E400000F04EFBC82000F04BFB002000F048FBD8
:102E5000102000F045FB402000F042FB812000F0F4
:102E60003FFBFF2000F03CFBA12000F039FBA62037
:102E700000F036FBA82000F033FB3F2000F030FBD1
:102E8000A42000F02DFBD32000F02AFB002000F04E
:102E900027FBD52000F024FBF02000F021FBD920F7
:102EA00000F01EFB222000F01BFBDA2000F018FBD4
:102EB000122000F015FBDB2000F012FB202000F0B8
:102EC0000FFB8D2000F00CFB142000F009FBAF205D
:102ED00000F006FBBDE81040FFF770BF7047704779
:102EE00070B504461348FEF7BDFF1348114D90FB23
:102EF000F4F12A68491ED16290FBF4F0401EE860AC
:102F00004FF4FA5090FBF4F0401EFDF79AFA0B498B
:102F10004968FDF72BF9FDF7E8FA0022084BFDF7A9
:102F200063F9FDF7C9FA296808642846BDE87040CE
:102F3000FEF744BF2837002000127A001008002056
:102F40000000E03F30B57F2819DC3F2917DC0C4B2F
:102F50001B78002B13D0CB1701EB537323F007041E
:102F60000C1B0121074DA140DB1005EBC3131844D6
:102F7000002A027801D00A4300E08A43027030BD83
:102F80002C080020F8370020FEF7E4BA30B593B0E3
:102F900028216846FDF7DFF814210AA8FDF7DBF8C1
:102FA000002501210F9510950804CDE90010119519
:102FB00009951295029502240491CDE907406846CF
:102FC000FEF7C2FC08B172B6FEE70F20CDE90A0495
:102FD00080200C90C000CDE90D0500210AA8FEF765
:102FE000C7FB08B172B6FEE74FF4004011900F9492
:102FF0000FA8FEF747FB002801D072B6FEE713B01A
:1030000030BD70470148FFF76EB90000E036002080
:1030100070B51B4C21781B480025C9B1042916D175
:1030200001688068401AFDF715FAFDF75EFA002284
:10303000154BFDF780F902460B4600201349FDF7BA
:103040007AF9FDF765FA2178491C2170257070BD69
:10305000A5600C490C3109684D62056045608560CA
:10306000002000F015F807480C30FEF7CFFE0548A9
:1030700008210C30FFF784F82078401C207070BDC8
:1030800010080020D436002080843E410000F03F2C
:1030900006490A68136A23F00A03136209680A6A78
:1030A00000F00A0002430A6270470000E036002088
:1030B0000148FFF718B9000028370020F0B5026872
:1030C000164B174C174D4FF08047984205D0B84229
:1030D00003D0A04201D0A84203D122F070064A6872
:1030E0003243984205D0B84203D0A04201D0A84252
:1030F00003D122F44074CA6822434C6922F0800252
:10310000224302608A68C2620A688262984201D1E0
:103110000969016301214161F0BD0000002C0140FB
:10312000000400400008004010B501F01F03012119
:10313000046A99408C430462016A9A401143016217
:1031400010BD10B5846842EA032224F47F440A4388
:103150002243826010BD826822F070020A4342F06E
:10316000070181607047000030B5026A22F0010259
:103170000262026A4368846924F073050C682C4378
:1031800022F002058A682A430A4DA8420BD122F098
:103190000805CA6823F440732A434D6922F00402EB
:1031A0001D438B692B43436084614968416302621C
:1031B00030BD0000002C014030B5026A22F0100240
:1031C0000262026A436884690D6824F4E64444EAB2
:1031D00005248D6822F0200242EA05120B4DA84218
:1031E0000ED1CD6822F0800242EA05124D6923F427
:1031F000406343EA85038D6922F0400243EA850378
:103200004360846149688163026230BD002C0140E3
:1032100030B5026A22F480720262036A4268C469AD
:1032200023F4007324F073050C682C438D6843EA83
:1032300005230C4DA8420ED1CD6823F4006343EA68
:1032400005234D6922F4405242EA05128D6923F4A8
:10325000806342EA05124260C4614968C163036247
:1032600030BD0000002C014030B5026A22F48052CB
:103270000262046A4268C3690D6823F4E64343EAC4
:1032800005238D6824F4005444EA0534064DA84211
:1032900004D14D6922F4804242EA85124260C36142
:1032A00049680164046230BD002C014010B5036A16
:1032B000046A24F001040462846924F0F00444EAFE
:1032C000021423F00A020A438461026210BD000066
:1032D00070B5046A24F0010404628469056A0F4E23
:1032E000B04208D0B0F1804F05D00D4EB04202D0B0
:1032F0000C4EB04203D124F00304144301E044F027
:1033000001041A0724F0F00444EA126225F00A03CB
:1033100001F00A0119438261016270BD002C014075
:10332000000400400008004010B5036A23F01003B9
:1033300003628369046A23F4704343EA023224F08F
:10334000A00343EA01118261016210BD30B5046A35
:1033500024F0100404628469056A24F4407444EA89
:10336000022222F470444FF6FF7202EA0332224333
:10337000A02425F0A00304EA01111943826101622F
:1033800030BD000070B5044600680169E26821F4B0
:103390004051114301612169A068084361690843F4
:1033A0002168CA6841F20C639A430243CA602068EC
:1033B0004169A26921F44071114341611E492068AD
:1033C000884202D1FEF77AFA01E0FEF767FA00EBD5
:1033D000C00101EB0012606864218000B2FBF0F3D1
:1033E000B3FBF1F36FF018067343B2FBF0F5B2FBD9
:1033F000F0F605EB8305322303EB0515B5FBF1F57C
:10340000B6FBF1F605F0F00505EB0615B2FBF0F69C
:10341000B2FBF0F0B0FBF1F06FF01802504306EB96
:10342000800003EB0010B0FBF1F0216800F00F000A
:103430002844886070BD0000003801402DE9F0414B
:10344000984617460E460446069D1DE0681C1BD094
:103450002DB1FEF779F8A0EB0800A84214D9206836
:10346000C16821F4D071C1602068416921F0010177
:103470004161202084F83D0084F83E00002084F85B
:103480003C000320BDE8F0812068006836EA0000B7
:1034900004D00020B842D9D00020F3E70120F9E79A
:1034A00000F006B80148FFF7A3BC0000F837002081
:1034B000FFF7F8BFFEE710B5FDF792FBBDE810403F
:1034C000FFF7EEBF044B1B78002B03D0034B03EB3D
:1034D000C0104254704700002C080020F83700202C
:1034E00010B50446FFF7BAFA782000F027F8FFF786
:1034F000E7FA002000F022F8FFF7E2FA204600F099
:103500001DF8FFF7DDFABDE81040FFF7C3BA10B5AC
:103510000446FFF7A3FA782000F010F8FFF7D0FA7E
:10352000402000F00BF8FFF7CBFA204600F006F839
:10353000FFF7C6FABDE81040FFF7ACBA2DE9F0413D
:10354000144F04464FF40076002231463846FDF70A
:10355000F6FF00254FF4807804F08000802816D014
:10356000002241463846FDF7EAFF6006040E0122BC
:1035700031463846FDF7E3FF002231463846FDF775
:10358000DEFF6D1CEDB2082DE6D3BDE8F08101220F
:10359000E7E70000000C01400FB4054B10B503A98C
:1035A000044A029800F03CF810BC5DF814FB0000DF
:1035B000E5370008340800200FB4084B10B504A903
:1035C00002AA039800F02CF8044602A9002000F09B
:1035D00003F9204610BC5DF814FB0000D937000841
:1035E0000907090E002804DB00F1E02080F8001430
:1035F000704700F00F0000F1E02080F8141D7047C4
:1036000002E008C8121F08C1002AFAD170477047AB
:10361000002001E001C1121F002AFBD17047000009
:103620002DE9FF4F8BB09A460F460546002606E06F
:1036300025280BD052460D9990476D1C761C287892
:103640000028F5D10FB03046BDE8F08F0024A04629
:103650000122604900E0044315F8013F203B02FAD3
:1036600003F00842F7D128782E2817D115F8010F5A
:1036700044F004042A280ED06FF02F022878A0F11D
:10368000300109290AD808EB880102EB410100EB5F
:1036900001086D1CF2E757F8048B6D1C2878692827
:1036A0003ED006DC0028CDD063280BD0642804D19E
:1036B00036E0732810D075284BD052460D999047AC
:1036C000761C85E017F8040B8DF8000000208DF8BB
:1036D0000100E946012003E057F8049B4FF0FF305A
:1036E00061074FF0000401D40AE0641C44450DDA80
:1036F0008442FADB19F804100029F6D106E0641CB4
:103700008442FCDB19F804100029F8D1264404E0B7
:1037100019F8010B52460D999047641EF8D257E0F4
:1037200001CF4FF00A0B002802DA40422D2102E0BF
:10373000210504D52B218DF82410012103E0E10798
:1037400005D02021F7E70DF1200908910CE00021B8
:10375000F9E701CF4FF00A0BF9E75946FCF7F4FE01
:1037600001F1300209F8012D0028F6D1ADEB090076
:1037700000F1200B600701D44FF00108D84502DDAD
:10378000A8EB0B0000E000208046002406E009A81A
:103790005246005D0D999047641C761C089884423F
:1037A000F5DB04E0302052460D999047761CB8F1C5
:1037B0000001A8F10108F5DC05E019F8010B5246FB
:1037C0000D999047761CBBF10001ABF1010BF4DCC5
:1037D0006D1C34E7092801000A68531C0B60107047
:1037E0007047000010B5044605484FF47A7301464F
:1037F000047001220348FFF701F8204610BD0000C5
:103800000000002070370020FDF7ACFEFFF7BEFB84
:10381000FFF7A4F9FFF78CF9FFF764F9FFF794FAC3
:10382000FFF746FAFFF7ACFAFFF7F6F9FFF7FDFAF4
:10383000FFF741FE8020FFF753FBFDF735F800BF8F
:10384000FDF70EFA00F002F8FAE700002DE9F0416A
:10385000574C584F00252078012847D1FDF724F810
:1038600055494FF4807201F50070FDF73DF8A560F1
:103870006179524A01EB012102EB81012846A2F550
:10388000806200BF52F8203041F82030401CFF28F1
:10389000F8DDA560A1794A4B01EB01202E4603EB30
:1038A0008000052906D347A0FFF776FE4BA0FFF75F
:1038B00073FE06E052F8263040F82630761CFF2EC4
:1038C000EFDDA6606079401CC0B26071A179491C2F
:1038D000A171052800D365713848FFF771F8FFF72B
:1038E00097FB42480078FCF7DFFF25706078404E78
:1038F00001281CD181033046FDF71CFE012816D19A
:103900002B4865700C30FFF75BF83846FEF7D0FFA8
:103910003C20FFF701F83748FFF752F83846FEF72A
:10392000C7FF3C20FEF7F8FF33A0FFF735FEA07875
:10393000012817D1C1033046FDF7FCFD012811D144
:10394000A570A17905290AD31EA0FFF725FE2EA098
:10395000FFF722FE2946A5711AA0FFF71DFE2EA033
:10396000FFF71AFEE078012810D1070339463046E8
:10397000FDF7E0FD012809D139463046FDF7DAFDB3
:10398000012803D1E57028A0FFF706FE2079012861
:103990000BD141033046FDF7CDFD012805D125713E
:1039A000BDE8F04124A0FFF7F7BDBDE8F0810000BD
:1039B000040000200000704238080020380E00206B
:1039C0004C22002065636764617461666C61675FA7
:1039D00073617665643A25640A000000CAFDBEDDA5
:1039E000B8FCD0C2BDE1CAF80A00000010080020EF
:1039F000000C0140100400204B657931536574754B
:103A0000704F4B210A0A0000D6D8D0C2B8FCD0C2F1
:103A1000CAFDBEDD0A0000004B657932536574753E
:103A2000704F4B210A0A00004B657933536574755A
:103A3000704F4B210A0A00004B6579345365747549
:103A4000704F4B210A0A0000007870470000000008
:103A5000000000000102030406070809000000003E
:103A60000102030400000000003E5B4F5B3E3E6B22
:103A70004F6B3E1C3E7C3E1C183C7E3C181C577D08
:103A8000571C1C5E7F5E1C00183C1800FFE7C3E754
:103A9000FF0018241800FFE7DBE7FF30483A060E66
:103AA0002629792926407F050507407F05253F5AAD
:103AB0003CE73C5A7F3E1C1C08081C1C3E7F14221D
:103AC0007F22145F5F005F5F06097F017F006689C8
:103AD000956A606060606094A2FFA29408047E040E
:103AE0000810207E201008082A1C08081C2A080834
:103AF0001E101010100C1E0C1E0C30383E383006F4
:103B00000E3E0E06000000000000005F00000007EF
:103B1000000700147F147F14242A7F2A122313081D
:103B2000646236495620500008070300001C2241F9
:103B3000000041221C002A1C7F1C2A08083E08089D
:103B4000008070300008080808080000606000204D
:103B5000100804023E5149453E00427F4000724930
:103B60004949462141494D331814127F10274545D4
:103B700045393C4A494931412111090736494949EA
:103B800036464949291E0000140000004034000058
:103B900000081422411414141414004122140802C1
:103BA000015909063E415D594E7C1211127C7F4934
:103BB0004949363E414141227F4141413E7F494989
:103BC00049417F090909013E414151737F080808B5
:103BD0007F00417F41002040413F017F0814224186
:103BE0007F404040407F021C027F7F0408107F3EE0
:103BF0004141413E7F090909063E4151215E7F094D
:103C0000192946264949493203017F01033F4040B3
:103C1000403F1F2040201F3F4038403F631408149E
:103C20006303047804036159494D43007F414141D6
:103C30000204081020004141417F040201020440B7
:103C400040404040000307080020545478407F283B
:103C50004444383844444428384444287F38545431
:103C6000541800087E090218A4A49C787F08040454
:103C70007800447D40002040403D007F10284400F3
:103C800000417F40007C047804787C080404783884
:103C900044444438FC1824241818242418FC7C08B4
:103CA000040408485454542404043F44243C404031
:103CB000207C1C2040201C3C4030403C44281028E4
:103CC000444C9090907C4464544C4400083641002D
:103CD0000000770000004136080002010204023CA7
:103CE0002623263C1EA1A161123A4040207A385476
:103CF00054555921555579412154547841215554F1
:103D0000784020545579400C1E5272123955555541
:103D100059395454545939555454580000457C412C
:103D20000002457D420001457C40F0292429F0F045
:103D3000282528F07C545545002054547C547C0A96
:103D4000097F4932494949323248484832324A4863
:103D500048303A4141217A3A42402078009DA0A063
:103D60007D39444444393D4040403D3C24FF2424B7
:103D7000487E4943662B2FFC2F2BFF0929F620C0D4
:103D8000887E090320545479410000447D41304825
:103D9000484A32384040227A007A0A0A727D0D1968
:103DA000317D2629292F28262929292630484D40CA
:103DB00020380808080808080808382F10C8ACBAC6
:103DC0002F102834FA00007B000008142A14222245
:103DD000142A14089500220095AA005500AAAA5595
:103DE000AA55AA000000FF00101010FF00141414C0
:103DF000FF001010FF00FF1010F010F0141414FC5E
:103E0000001414F700FF0000FF00FF1414F404FC7A
:103E1000141417101F10101F101F1414141F00105B
:103E20001010F0000000001F101010101F101010D4
:103E300010F010000000FF101010101010101010E3
:103E4000FF10000000FF140000FF00FF00001F1023
:103E5000170000FC04F414141710171414F404F4DD
:103E60000000FF00F714141414141414F700F714CE
:103E70001414171410101F101F141414F41410101D
:103E8000F010F000001F101F0000001F14000000C1
:103E9000FC140000F010F01010FF10FF141414FFB9
:103EA000141010101F00000000F010FFFFFFFFFFB4
:103EB000F0F0F0F0F0FFFFFF0000000000FFFF0F48
:103EC0000F0F0F0F38444438447C2A2A3E147E02D8
:103ED000020606027E027E0263554941633844446D
:103EE0003C04407E201E2006027E020299A5E7A522
:103EF000991C2A492A1C4C7201724C304A4D4D3093
:103F00003048784830BC625A463D3E494949007EB7
:103F10000101017E2A2A2A2A2A44445F444440514E
:103F20004A444040444A51400000FF0103E080FF02
:103F3000000008086B6B083612362436060F090F8E
:103F400006000018180000001010003040FF0101AA
:103F5000001F01011E00191D1712003C3C3C3C00D3
:103F60000000000000000000883F00080000002062
:103F70003808000004070008B4440008380800208E
:103F8000C037000010360008D20001401FAE473194
:103F900040D7A33040713D3A40E17A344014AE3707
:103FA00040F6283C40B81E354048E1142124301426
:103FB0000AD73340EC512840CDCC2C403D0A274055
:103FC000A4701D04100433331328121A1C12181C79
:103FD000320C101004A4700D4C100614408FC21542
:103FE0001C320A14700852B80E4000001014300839
:103FF00085EB1140295C0F0C212C3004C3F50824FB
:104000001004F6280C7C520544300604406666060F
:10401000042005F628FC3F181004D7A300903201B5
:104020002430089A99F93F14AE072810045C8F02D7
:10403000103209083004D7A31048210C212820058C
:104040003D0AF73F20300485EB010C214420053365
:1040500033F33FB021FC10043333439C12500C3235
:104060002018300C6666E63F0000E03F8FC2F50482
:104070002005D7A3F03F7421082180214821083072
:1040800004713D0A8821C421B821AC21E421182102
:10409000C030045C8F12E021F4251014083D0A178B
:1040A000407B141E6432176C34045C8F2244140469
:1040B0000AD72380121A84322020251C651441A4BB
:1040C00012103C36072C21F82510217C25202530A4
:1040D000253C21202500211421802518253021444C
:1040E000254C214C25182104213021A82150256878
:1040F00061142178212CA114212825B82168A13C24
:1041000025BC254021D825C821DC21C030041F85CD
:104110001BC821F43804C3F51828250029202500E0
:104120002940180485EB616012652C3A6B5843B83E
:104130001E2065183804333323603404B81E25105C
:1041400038048FC2257C2534297C25381004666606
:104150002640322B2C3004F6282C0C215C180466E7
:10416000663648122E7C32380434049A9939E04974
:10417000CC12447832451018047B144ED812412CCE
:104180003A3EFC219829EC2148216C2154615C3095
:10419000049A9929702124218C21601C04295C2F08
:1041A00020033E2A3C032D18032124218825CC21FD
:1041B00030E1A4212021D0210C21AC3C04AE4721C8
:1041C000500321E4210C214029142134214421F8F9
:1041D00021942D7003216C2D90032158217C2140C6
:1041E000213021B46514254810040AD753BC1A782D
:1041F000F032770C4F3333B403210861E030043DD3
:104200000A37BC2DE803340485EB31301C04E17A15
:10421000D448033C0AE73F3D0AD73FA470DD0003C2
:10422000210C70081F85EB3FF628DC14210C2D0CA7
:10423000031C047B14EE3C0312EC1032FC0C2D9496
:104240000321044805EC51F83F683E0004042110A6
:104250002D4803215C1004295CCF3C32D0041004AB
:1042600048E1BA5C1ECBD0031EC56C0332C61C30BD
:104270000452B8BE243004713DCA1C218C211C217B
:104280003421A02130218C213830048FC2D5483010
:10429000040AD7C30C21442118300485EBD15421E2
:1042A000B421CC211C50045C8FE2183EE5D40330CD
:1042B0000448E1DAD82005AE47E13FB02DE4032DF4
:1042C000EC033004C3F5E86821FC650C21BC211C1B
:1042D0002DCC032D180529403C04CDCC3C90042165
:1042E0003021403C0485EBF11C042D14042DA40462
:1042F0002D840321102D98042D84042D98032DE086
:10430000046D14052D14034D10053E1EEC0329C049
:104310003804C3F5281025F03C04A4703D70052D29
:1043200084052D7C052D8C053804295C3FC829ACFB
:1043300045E83633D42D180369384D74035E25944F
:104340000549402D50046970299029B029AC29C431
:10435000294429D4211429E42D58034D380349FC5C
:1043600038047B142E3C29E821402D54032D0C06E3
:1043700029C82D340621042940A9502D480329605D
:104380003C0485EB4170032D4806611421D82D9C17
:10439000032D54066D6C061404EC51484816683819
:1043A0001E845C051E887C051A63BC32474821F4D4
:1043B00021202DA4033004CDCC4C041004C3F548B7
:1043C0002412535C1E4A14041A55E81257201E5139
:1043D00008061A59C81E66CC03325E4421102D64AB
:1043E0000430047B145E0810043D0A676012607894
:1043F000326A0410049A996960326F7C2108211492
:104400006D90041004F6285C60325A5C70041F85BD
:104410004B70210C21841C0414AE47B80532521095
:104420003C04713D4A48042D58043004A4704D24C6
:1044300030048FC2452C211421A821C430045C8F84
:10444000423821D4212C213870040000401C210462
:1044500021E0210825142DA404250821146134210C
:10446000302904212C21082DA40725681C04B81E1E
:104470005508071281801285C0327B482DF0032534
:1044800038218C2DEC04210829B8216029582D1CD5
:104490000521106D04082C05EC51B83E0C081E01D6
:1044A00010086E101908300724F4000101011421CE
:0444B0000100000007
:04000005080000ED02
:00000001FF
